:020000040800F2
:1000000020070020C9020008610100086301000800
:100010006501000867010008690100080000000090
:100020000000000000000000000000006B0100085C
:100030006D010008000000006F010008112A00088F
:10004000E3020008E3020008E3020008E3020008FC
:10005000E3020008E3020008E3020008E3020008EC
:10006000FB210008E3020008E3020008E3020008A5
:10007000E3020008E3020008E3020008E3020008CC
:10008000E3020008E3020008E3020008E3020008BC
:100090006B260008EF260008E3020008E3020008D0
:1000A000E3020008E3020008E3020008E30200089C
:1000B000E3020008D9220008E3020008E302000876
:1000C000E3020008E3020008E3020008E30200087C
:1000D000E3020008E52B0008B52B0008E302000846
:1000E00003220008E3020008E3020008DFF80CD056
:1000F00002F06CFE004800470101000820070020C4
:1001000014484FF47A710180418001F092FF01F0B0
:10011000BAFF01F0E9FF4FF4A06000F0E7F802F049
:1001200096FA482001F0BCFE02F0EFFC02F048FC19
:1001300002F08EF901F0EEFE4FF40051064800F097
:10014000BCFE02F0B0F8054900208870042001F0E0
:10015000BAFEFBE700000020001001407002002002
:100160007047FEE7FEE7FEE7FEE77047704770471F
:100170000CB500224C4800920192016841F4803194
:1001800001604FF4A063016801F40031019100990E
:10019000491C0091019911B900999942F3D1016864
:1001A000890333D50121019140490A6842F01002C8
:1001B0000A600A6822F003020A600A6842F002023A
:1001C0000A604168416041684160416841F4806172
:1001D0004160416821F47C114160416841F4E811BB
:1001E0004160016841F08071016001688901FCD5BE
:1001F000416821F003014160416841F00201416022
:100200004168C1F381010229FAD10CBD01920CBDF4
:10021000254810B5016841F0010101604168244A98
:10022000114041600168234A11400160016821F4D6
:1002300080210160416821F4FE0141604FF41F01FB
:100240008160FFF795FF1C494FF00060086010BD0A
:10025000154A10B55068194B10F00C01184803D01E
:10026000042901D0082901D0036012E051685368C5
:1002700001F470114FF0020413F4803F04EB91413C
:1002800002D053689B0301D50E4B00E00B4B594342
:10029000016051680A4AC1F30311121D515C0268E2
:1002A000CA40026010BD0000001002400020024061
:1002B0000000FFF8FFFFF6FE08ED00E000127A00F4
:1002C0000400002000093D0006488047064800471A
:1002D000FEE7FEE7FEE7FEE7FEE7FEE7FEE7FEE7F6
:1002E000FEE7FEE711020008ED0000082749084379
:1002F00027490860704770B50F23C2780178012440
:100300004FF0E025DAB1224A126802F4E062C2F549
:10031000E062120AC2F10406D3404278B240867805
:100320001E401C4B16433201CA54007800F01F01D6
:100330008C40400905EB8000C0F8004170BD01F021
:100340001F008440480905EB8000C0F8804170BD63
:10035000114A114001430E48001F016070470C4ACA
:10036000121D0029116801D0014300E08143116092
:1003700070474FF0E0210428086903D020F0040002
:100380000861704740F00400FAE700000000FA0539
:100390000CED00E000E400E080FFFF1FFE4910B517
:1003A00088424FF0010101D14C0601E04FF080641A
:1003B000204600F08DFC2046BDE81040002100F0F2
:1003C00087BC10B50368002223F0020303600368B2
:1003D00043F0010303604FF6FF7300E0521C4468D2
:1003E000E40701D19A42F9D14268D2073ED08A7916
:1003F000012A02683CD022F080020260CA79012AF8
:10040000026838D022F0400202600A7A012A0268AB
:1004100034D022F0200202604A7A012A026830D0E9
:1004200022F0100202608A7A012A02682CD022F09F
:1004300008020260CA7A012A026828D022F0040267
:1004400002608A78CC78920742EA04620C7942EA28
:1004500004424C79098842EA0452491E0A43C261A7
:10046000016821F001010160002114E0002010BDAD
:1004700042F08002C1E742F04002C5E742F02002AC
:10048000C9E742F01002CDE742F00802D1E742F09E
:100490000402D5E7491C4268D20701D09942F9D13C
:1004A0004068C007E2D1012010BDF0B5827ABB4C94
:1004B00001219140226842F001022260B74D1C35B3
:1004C0002A688A432A60B54AB44E037B0C32403610
:1004D000371DA3B913688B4313604388B0F806C077
:1004E00043EA0C4390F80AC046F83C300388B0F861
:1004F00004C043EA0C4390F80AC047F83C30037B41
:10050000012B0ED113680B4313600268837A4FEA04
:10051000324246F833204268837A4FEA324247F843
:1005200033209E4AC37A121D002B136806D00B435A
:1005300013609A4A0389143213B104E08B43F7E73E
:1005400013688B4313600389012B02D113680B439B
:100550001360407B012802D1286808432860206886
:1005600020F001002060F0BD00218171C171017295
:1005700041728172C1728170C170032101710221C7
:10058000417101210180704784490A6842F00102EB
:100590000A600A6843F60E739A430A600A6842EAE0
:1005A00000200860086820F00100086070470029FA
:1005B000016802D041F4803101E021F48031016012
:1005C00070470029016813D041F080010160D0F824
:1005D000841141F48071C0F88411D0F8941141F471
:1005E0008071C0F89411D0F8A41141F4807112E028
:1005F00021F080010160D0F8841121F48071C0F8ED
:100600008411D0F8941121F48071C0F89411D0F8BD
:10061000A41121F48071C0F8A411704730B50246CE
:10062000002093685B0108D49068000101D5012087
:1006300003E09068C00031D5022002EB0012D2F82E
:10064000803103F00103C2F880310B7A43B3D2F852
:1006500080414D681C434B7A43EAC5031C43C2F8F2
:1006600080418B7A02F5C07203F00F038B725368DE
:1006700023F00F03536053688C7A23435360CB7A83
:10068000CC6843EA04239360CB7B096943EA0121E8
:10069000D160116841F00101116030BD042030BD0E
:1006A000D2F880314C7A23430C8843EA4453C2F891
:1006B0008031D6E7002221B1012905D0022906D1D7
:1006C00012E08268364801E08268364802403649C6
:1006D000501A8A4214D00ADCA2B16FF08060101860
:1006E0000FD002280CD10FE082683048EEE7B0F559
:1006F000007F09D02E49401803D0B0F5003F03D049
:1007000000207047022070470120704741B1012945
:100710000AD0022903D1816841F400018160704749
:10072000816841F08001F9E7816841F40041F5E713
:1007300010B500EB0113D3F8B04114F004041472A7
:10074000D3F8B0413AD0E408546003F5D8731C687C
:1007500004F0020454725C6804F00F0494725C6844
:10076000240AD4749C68D4729C68240A14739C680C
:10077000240C54739C68240E9473DC68D473DC6876
:10078000240A1474DC68240C5474DB681B0E937404
:10079000B9B101690EE0000000640040006600404D
:1007A000030000040003000800010008000003101B
:1007B0000001FFF741F02001016110BD640D1460DC
:1007C000C3E7C16841F02001C16010BD21B10169DA
:1007D00041F0200101617047C16841F02001C16012
:1007E00070470246002029B1012902D1106900F0AA
:1007F00003007047D068FAE700234FF6FF7221B17B
:10080000012917D0022924D03AE0016821F0020121
:1008100041F00101016000E0521E416801F0030156
:10082000012901D0002AF7D1406800F00300012817
:1008300023D124E0016821F00301016000E0521E91
:100840004168890701D0002AF9D14068800714D196
:1008500015E0016821F0010141F00201016000E0B2
:10086000521E416801F00301022901D0002AF7D18C
:10087000406800F00300022801D0002300E00123BB
:10088000184670470268002122F0010242F002027D
:100890000260406800F00300022800D101210846F0
:1008A000704702684FF6FF71002322F002020260D7
:1008B00001E0A1F101014268920701D50029F8D1B8
:1008C0004068800700D40123184670478069C0F350
:1008D0000210000170478069000E70478069C0F304
:1008E00007407047002A426901D00A4300E08A436A
:1008F000426170470246002011F4700F03D09269E4
:1009000004E001207047CB0104D552680A4011036E
:10091000F7D170470B0101D59268F7E78B0101D53C
:10092000D268F3E71269F1E7534A914202D10021FC
:1009300081617047C1F313028B0101D5C26070471A
:100940004B0101D502617047090101D582607047F2
:10095000426070470246002053690B424AD0B1F50D
:10096000807F3BD013DC08292ED007DC012926D05C
:10097000022927D004293DD1D0682BE0102925D0A9
:10098000202926D0402935D11069102130E0B1F559
:10099000004F2BD00BDCB1F5007F22D0B1F5806F7A
:1009A00022D0B1F5006F25D19069702120E0B1F51A
:1009B000803F11D0B1F5003F1CD15068E5E7906849
:1009C0002E4915E0D06802E0D068DEE71069032107
:1009D0000EE0106908210BE05068FBE790690121E7
:1009E00006E09069022103E0906900E0506804216C
:1009F00000F03BB8704730B5082310240422B1F54D
:100A0000007F1DD010DC202929D007DC012921D04E
:100A1000042922D0082900D1C46030BD402920D04B
:100A2000B1F5807FF9D10BE00025B1F5004F06D07C
:100A300008DCB1F5806F03D0B1F5006FEDD18561B1
:100A4000426030BDB1F5803F0DD0B1F5003FF8D127
:100A5000446030BD0949816030BDC36030BD036171
:100A600030BD046130BD436030BD024600200A4203
:100A700000D00120704700007000F030010101003B
:100A8000A548016841F0010101604168A34A114095
:100A900041600168A24A11400160016821F480218F
:100AA0000160416821F4FE0141604FF41F01816043
:100AB000704799490A6822F480320A600A6822F471
:100AC00080220A60B0F5803F07D0B0F5802F03D1B7
:100AD000086840F4A02008607047086840F480303F
:100AE000F9E70346002059098B4A01290AD0022957
:100AF0000AD0516A03F01F02012393400B4200D039
:100B0000012070471168F5E7116AF3E718B5002076
:100B10004FF4A06400903120FFF7E3FF0099491CD7
:100B20000091A14201D00028F5D03120FFF7D9FF74
:100B3000002800D0012018BD774A116821F0F80183
:100B400041EAC00010607047764908607047724BF8
:100B50005A68084322F47C12104358607047714968
:100B6000086670476C4A516821F0030101435160E7
:100B700070476948406800F00C007047664A516849
:100B800021F0F001014351607047634A516821F43C
:100B9000E0610143516070475F4A516821F4605140
:100BA00041EAC000506070475B4A0029517A01D089
:100BB000014300E08143517270475A49D8310860BF
:100BC0007047554A516821F44041014351607047D4
:100BD0005149002281F8202081F82020012802D0EC
:100BE000042802D1052081F8200070474E49086092
:100BF000704749490A6A02430A6270474A494439C0
:100C00000860704730B5444A5168484B11F00C01F8
:100C100003D0042901D0082901D0036012E05168F3
:100C2000536801F470114FF0020413F4803F04EB99
:100C3000914102D053689B0301D53D4B00E03B4BF3
:100C40005943016051680F2303EA1111394B5C5C71
:100C50000168E14041605468072505EA14241C5DE1
:100C600021FA04F48460546805EAD4241B5DD94059
:100C7000C1605268032303EA92322E4B1B1F9A5C19
:100C8000B1FBF2F1016130BD234A0029516901D065
:100C9000014300E08143516170471F4A0029916977
:100CA00001D0014300E08143916170471A4A002955
:100CB000D16901D0014300E08143D1617047164AF8
:100CC0000029D16801D0014300E08143D160704721
:100CD000114A0029116901D0014300E081431161EB
:100CE000704711494039086070470E49C864704721
:100CF0000949C87170470848416A41F080714162F2
:100D00007047054A0146002092680A4200D001203F
:100D10007047014988727047001002400000FFF8D8
:100D2000FFFFF6FE000042428004424200127A00B9
:100D300000093D001C0000208E4910B5884206D1F4
:100D400001210420FFF7BBFF002104203BE08A497A
:100D5000884206D101210820FFF7B1FF00210820B9
:100D600031E08649884206D101211020FFF7A7FF14
:100D70000021102027E08249884206D1012120204D
:100D8000FFF79DFF002120201DE07E49884206D10B
:100D900001214020FFF793FF0021402013E07A4912
:100DA000884206D101218020FFF789FF00218020A1
:100DB00009E0764988420AD1841501212046FFF7CF
:100DC0007EFF00212046BDE81040FFF778BF10BD30
:100DD00010B501210846FFF772FF0021BDE8104061
:100DE0000120FFF76CBFF0B5CC78002204F00F03B0
:100DF000E40601D58C7823430C784FF00F0C4FF0AC
:100E0000010EDCB105680E880EFA02F42640A642F7
:100E100010D196000CFA06F725EA070703FA06F543
:100E2000CE783D43282E02D0482E02D002E0446105
:100E300000E00461521C082AE5D305600A88FF2AF5
:100E40001CD94468002202F108060EFA06F50E8845
:100E50002E40AE420ED196000CFA06F7BC4303FAC0
:100E600006F7CE783C43282E00D14561CE78482E37
:100E700000D10561521C082AE5D34460F0BD4FF64D
:100E8000FF710180022181700421C1707047024608
:100E9000002092680A4200D001207047806880B22A
:100EA000704702460020D2680A4200D001207047F5
:100EB000C06880B2704701617047416170470AB1F4
:100EC0000161704741617047C160704741F48032F1
:100ED0008261816182618169806970472C4B10B5A4
:100EE0001A684FF68074224042EA001008431860E6
:100EF00010BD2849C8617047F0B5254C002801DABB
:100F0000E36900E06368450D2E0185B2C0F3015727
:100F1000B540C0F30342032F05D0C6020AD503260D
:100F20009640B34307E023F07062636823F0706378
:100F3000636002E0AB4343F0706201B12A430028D2
:100F400001DAE261F0BD6260F0BD10B58A0721F000
:100F500003040F49120F21440F238C6893409C43D4
:100F60008C608B68904003438B6010BD0949DC3175
:100F70000860704700080140000C0140001001406B
:100F80000014014000180140001C014000200140F5
:100F90000000014000002042F94910B5884202D10A
:100FA0000121C41486E0B0F1804F09D0F549884290
:100FB0000DD101210220FFF78BFE0021022064E009
:100FC00001210846FFF784FE002101205DE0EE4983
:100FD000884206D101210420FFF77AFE0021042077
:100FE00053E0EA49884206D101210820FFF770FE4C
:100FF0000021082049E0E649884206D1012110205D
:10100000FFF766FE002110203FE0E249884206D14A
:1010100001212020FFF75CFE0021202035E0DE4981
:10102000884202D10121441444E0DC49884202D1C3
:101030000121CC043EE0DA49884202D101210C05AD
:1010400038E0D849884202D101214C0532E0D64926
:10105000884206D101214020FFF73AFE00214020BE
:1010600013E0D249884206D101218020FFF730FEEB
:101070000021802009E0CE4988420AD1841501214F
:101080002046FFF725FE00212046BDE81040FFF76F
:101090001FBEC849884202D101210C040AE0C6499A
:1010A000884202D101214C0404E0C44988420AD19B
:1010B00001218C042046FFF702FE2046BDE81040C7
:1010C0000021FFF7FCBD10BD30B50288AC4CB24D1D
:1010D000A0420DD0A8420BD0B0F1804F08D0A94B50
:1010E000984205D0A84B984202D0A84B984203D111
:1010F00022F070034A881A43A54B984206D0A54BAC
:10110000984203D022F44073CA881A4302808A8826
:1011100082850A880285A0420AD0A84208D0A54A42
:10112000904205D0A44A904202D0A44A904201D1F4
:10113000097A01860121818230BD30B5028C22F00E
:1011400001020284028C8388048B22F0020224F0C4
:1011500073050C882C430D8915434A882A43884D12
:10116000A8420BD08C4DA84208D0924DA84205D081
:10117000914DA84202D0914DA8420DD122F0080510
:101180004A8923F440732A4322F004058A882A43BB
:101190008D891D43CB892B4383800483C988818635
:1011A000028430BD70B5028C22F010020284028CE1
:1011B0008388048B0D8824F4E6464FF6FF7404EA16
:1011C000052535430E8922F0200204EA061616434F
:1011D0004A8804EA02123243694EB04202D06E4E8F
:1011E000B04215D122F080064A8923F4406304EA14
:1011F0000212324322F040068A8804EA0212324385
:101200008E8904EA86061E43CB8904EA83033343AE
:1012100083800583C9880187028470BD70B5028C04
:1012200022F480720284028C8388848B0D8824F0DF
:10123000730425430E894FF6FF7422F4007204EA0A
:10124000062616434A8804EA022232434C4EB04234
:1012500002D0514EB04215D122F400664A8923F4DF
:10126000405304EA0222324322F480668A8804EA68
:10127000022232438E8904EA06161E43CB8904EA11
:101280000313334383808583C9888187028470BDBB
:1012900070B5028C22F480520284058C8288838B84
:1012A0000C8823F4E6464FF6FF7303EA0424344324
:1012B00025F400560D8903EA053535434E8803EAC7
:1012C00006362E432E4DA84202D0334DA84205D1FA
:1012D00022F480458A8903EA82122A438280848329
:1012E000C988A0F84010068470BD828B22F4406249
:1012F0008283828B4FF6FF7303EA01210A438283C4
:101300007047828B22F00C028283828B0A43828395
:101310007047028B22F440620283028B4FF6FF7308
:1013200003EA01210A4302837047F0B5048C24F0DC
:1013300010040484078B048C4FF6FF7527F4734761
:1013400005EA03333B4305EA02221A430C4B05EA44
:10135000011698420ED0104B98420BD0B0F1804F3E
:1013600008D0084B984205D0074B984202D0074B53
:10137000984225D124F02001314341F0100124E0AE
:10138000002C01400004004000080040000C004018
:10139000001000400014004000340140004C0140A7
:1013A000005001400054014000180040001C004063
:1013B000002000400040014000440140004801403E
:1013C00024F0A0030B4343F0100102830184F0BD1D
:1013D000028B22F00C020283028B0A4302837047C5
:1013E00070B5048C24F001040484058B048C4FF642
:1013F000FF7606EA0313134325F0F305F84A2B435F
:1014000090420ED0F74A90420BD0B0F1804F08D0F6
:10141000F54A904205D0F54A904202D0F44A9042F3
:1014200002D124F0020201E024F00A020A4342F051
:1014300001010383018470BD2DE9F84F0D46044678
:101440000888E74FDFF89CC3DFF89C83DFF89C93A4
:101450004988AA882B894FF0804A48B304282FD0A6
:101460004FF6FF760828934632D0208C9E4620F413
:1014700080502084A38B208C06EA0132009223F452
:10148000734306EA0B221A4306EA0E331343BC42A7
:101490000AD0644508D0544506D0444504D04C4594
:1014A00002D0D34A944242D120F40050009940E047
:1014B0002046FFF795FFE9882046BDE8F84F87E70B
:1014C0002046FFF732FFE9882046BDE8F84F20E7C5
:1014D000208C20F480702084B4F81CE0208C06EA74
:1014E000031306EA01222EF0F30E43EA0B0343EA4C
:1014F0000E030092BC420AD0644508D0544506D081
:10150000444504D04C4502D0B94A944203D120F45A
:101510000070009901E020F42060084340F48070DE
:10152000A3832084E9882046BDE8F84FE9E620F44B
:101530000240084340F48050A3832084E988204679
:10154000BDE8F84FD1E62DE9F0410C460026498868
:101550000746012501B90226A288012A00D10225E9
:10156000208823890028384610D0FFF7DEFEE18866
:101570003846FFF7CEFE23892A4631463846FFF724
:101580002FFFE1883846BDE8F04121E7FFF728FF4B
:10159000E1883846FFF71CFF23892A463146384642
:1015A000FFF7C3FEE1883846BDE8F041B1E610B56B
:1015B0000A884B88CC881A438B8823431A430B89AB
:1015C0001A434B8989891A430A43A0F8442010BD65
:1015D0004FF6FF71818000210180C180418001723E
:1015E00070470021018041808180C180018141815B
:1015F0008181C18170470021018041800122828068
:10160000C180018170470021018041808180C180BB
:1016100001814181818170470029018802D041F018
:10162000010101E021F0010101807047002930F83B
:10163000441F02D041F4004101E0C1F30E010180DA
:101640007047002A828901D00A4300E08A438281E0
:101650007047818270471143A0F848107047002AF4
:10166000828901D00A4300E08A4382817047018960
:1016700021F0070101817047028922F070020A43BC
:101680000281704700B50346FFF7F6FF188940F066
:101690000700188100BD70B516460D466029044646
:1016A0004FF0010231460AD0FFF79AFE2946204644
:1016B000FFF7E2FF208940F00700208170BDFFF7AF
:1016C00034FEF3E730B504894FF6FF7505EA0323CE
:1016D0001343E4B20B432343038130BD10B50446EA
:1016E000FFF7F0FF208940F07700208110BD10B592
:1016F0000446FFF7E7FF208940F48040208110BDB9
:10170000018582827047028822F070020A430280BB
:10171000704770B50589048B068C25F007050D43CD
:101720004FF6FC410C4040F201110C434FF6FF71A3
:1017300001EA031126F02206114331430581048397
:10174000018470BD028B22F070020A43028370474D
:10175000028B4FF6FF7322F4E04203EA01211143AA
:1017600001837047828B22F070020A4382837047A4
:10177000828B4FF6FF7322F4E04203EA012111430A
:10178000818370470029018802D041F0800101E087
:1017900021F08001018070470029818802D041F04A
:1017A000040101E021F00401818070470029818853
:1017B00002D041F0080101E021F00801818070476A
:1017C0000029818802D041F0010101E021F00101EE
:1017D00081807047028B22F008020A43028370471F
:1017E000002C01400034014000040040000800408B
:1017F000000C0040028B4FF6FF7322F4006203EAF4
:10180000012111430183EAE7828B22F008020A4397
:101810008283E4E7828B4FF6FF7322F4006203EACF
:10182000012111438183DAE7028B22F004020A438B
:101830000283D4E7028B4FF6FF7322F4806203EA3F
:10184000012111430183CAE7828B22F004020A437B
:101850008283C4E7828B4FF6FF7322F4806203EA2F
:10186000012111438183BAE7028B22F080020A43EF
:101870000283B4E7028B4FF6FF73C2F30E0203EA52
:10188000012111430183AAE7828B22F080020A43DF
:101890008283A4E7828B4FF6FF73C2F30E0203EA42
:1018A0000121114381839AE7028C22F002020A434C
:1018B000028494E7028C22F008020A4302848EE735
:1018C000028C4FF6FF7322F0200203EA011111434C
:1018D000018484E7028C4FF6FF7322F0800203EA52
:1018E0000111114301847AE7028C4FF6FF7322F451
:1018F000007203EA01211143018470E7028C4FF664
:10190000FF7322F4006203EA01211143018466E7B8
:10191000028C4FF6FF7322F4005203EA01311143A7
:1019200001845CE710B50123048C8B409C43048444
:10193000038C8A401343038410BD10B50423048C28
:101940008B409C430484038C8A401343038410BD62
:1019500030B50124058C00F118038C40A5430584A3
:1019600089B108290FD0091FC1F34E00184401683E
:1019700021F4E041016001684FF6FF7303EA02229F
:101980001143016030BD03EB5100016821F070018B
:1019900001600168F4E70029018802D041F00201EA
:1019A00001E021F00201018019E70029018802D03D
:1019B00041F0040101E021F0040101800FE700295A
:1019C000818802D041F0800101E021F08001818016
:1019D00005E7028822F00802028002880A4302809A
:1019E000FDE6828822F07002828082880A4382802B
:1019F000F5E6028922F00702028102890A43028188
:101A0000EDE6028922F08002028102890A43028106
:101A1000E5E68184E3E68185E1E68186DFE601870C
:101A2000DDE68187DBE6A0F84010D8E6028822F4E4
:101A30004072028002880A430280D0E6808ECEE6A1
:101A4000008FCCE6808FCAE6B0F84000C7E6808CF5
:101A5000C5E6008DC3E602460020128A0A4200D085
:101A60000120BCE6C9430182B9E602460020138A80
:101A700092890B4202EA010202D0002A00D0012022
:101A8000ADE6C9430182AAE6C64910B588420AD12B
:101A900001218C032046FFF712F92046BDE81040D3
:101AA0000021FFF70CB9C049884202D101214C0442
:101AB00010E0BE49884202D101218C040AE0BC49F1
:101AC000884202D10121CC0404E0BA4988420AD1FB
:101AD00001210C052046FFF7FBF82046BDE8104029
:101AE0000021FFF7F5B810BD30B50446008A85B077
:101AF0000D464CF6FF710840E98801432182A08918
:101B00004EF6F3110840A9882A8911436A890243D5
:101B10001143A181A08A4FF6FF410840A9890143E2
:101B2000A1826846FFF76EF89E48844201D103986F
:101B300000E00298A1890904002900EBC00101EB33
:101B40000010296802DA4FEA410101E04FEA810101
:101B5000B0FBF1F06422B0FBF2F14FEA01114FEA61
:101B600011136FF018056B4300EB8300A3891D046C
:101B70004FF0320306D503EBC000B0FBF2F000F0EB
:101B8000070005E003EB0010B0FBF2F000F00F00DF
:101B90000843208105B030BD4FF41651016000218B
:101BA0008180C18001810C2242818181704710B502
:101BB000028A4FF2FF031A400B884C8823438C881B
:101BC000C9880C4323431343038210BD00210180C5
:101BD00041808180C18070470029818902D041F411
:101BE000005101E021F400518181704710B5C1F32B
:101BF000421301F01F040121A140012B07D0022B49
:101C000007D01430002A026805D00A4304E00C30E3
:101C1000F8E71030F6E78A43026010BD002A828A96
:101C200001D00A4300E08A4382827047028A22F090
:101C30000F020282028A0A4302827047828922F4DA
:101C40000062828182890A438281704700298189EA
:101C500002D041F0020101E021F0020181817047D0
:101C6000028A22F020020282028A0A43028270471C
:101C70000029018A02D041F4804101E021F4804131
:101C800001827047C1F30801818070478088C0F3EA
:101C900008007047818941F0010181817047028B02
:101CA000D2B20283028B42EA012101837047028B88
:101CB00002F47F420283028B0A43028370470029A9
:101CC000818A02D041F0200101E021F020018182CF
:101CD00070470029818A02D041F0100101E021F013
:101CE0001001818270470029818A02D041F00801E9
:101CF00001E021F00801818270470029818902D02A
:101D000041F4004101E0C1F30E01818170470029D7
:101D1000818A02D041F4006101E021F400618182F6
:101D20007047828A22F004028282828A0A43828277
:101D300070470029818A02D041F0020101E021F0C0
:101D40000201818270470246002012880A4200D0B8
:101D500001207047C9430180704770B501F01F052D
:101D600001260024C1F3421306FA05F2012B0FD01D
:101D7000022B0FD0838A4FEA11210088134206FA02
:101D800001F600EA060001D000B10124204670BD32
:101D90008389F0E7038AEEE70A0A01219140C943EB
:101DA0000180704700380140004400400048004076
:101DB000004C004000500040374900200860091DD9
:101DC0000860091D0860091D086033493348143153
:101DD0000860704730B5304A8379016853B313689F
:101DE0008B431360111D0B680468A3430B600179DA
:101DF00011440B68046823430B60274B08331968B0
:101E00000468A14319601C1D21680568A94321606D
:101E10004179102905D011440A68006802430A601C
:101E200030BD1968026811431960216800680143D8
:101E3000216030BD0079104402688A43026030BDE1
:101E40000021016001710C224271817170471249B9
:101E500010310A6802430A60704701460E4A0020AA
:101E6000143212680A4200D0012070470A49143126
:101E700008607047084A014600201268064B0A4075
:101E800014331B680B4202D0002A00D00120704797
:101E9000014914310860704700040140FFFF0F0042
:101EA0004FF0E0210A6922F004020A611849C008D3
:101EB00000EB40020870C2EBC0104FF6FF7202EA5E
:101EC000C000488070471249498848434FF0E021DC
:101ED000486100238B61012008610869C20701D0B5
:101EE000C003FAD50B618B617047094909784843F3
:101EF0004FF0E021486100238B61012008610869EF
:101F0000C20701D0C003FAD50B618B617047000096
:101F10002C000020F8B501211820FEF7BEFE182085
:101F2000ADF8000010250F4F8DF8035003268DF8F3
:101F3000026069463846FEF756FF7403ADF800406C
:101F40008DF80350084D8DF8026069462846FEF76B
:101F50004AFF18213846FEF7AEFF21462846FEF715
:101F6000AAFFF8BD000C0140001001402DE9F0412E
:101F7000E14D80212846FEF78AFF0446402128468D
:101F8000FEF785FF44EA400402212846FEF77FFF62
:101F900044EA800401212846FEF779FFD74E44EA3F
:101FA000C00480213046FEF772FF44EA001440214D
:101FB0003046FEF76CFFD24F44EA40148021384689
:101FC000FEF765FF44EA801440213846FEF75FFFC4
:101FD00044EAC010C4B24FF400412846FEF757FF50
:101FE000054631153046FEF752FF45EA4005F1142B
:101FF0003046FEF74CFF45EA8005B1143046FEF747
:1020000046FF45EAC0050421BE48FEF740FFBE4931
:1020100045EA0010C0B20A78824202D14A78A24250
:1020200005D008704C70BDE8F04100F054BCBDE82C
:10203000F08110B5FEF724FD4FF480342046FEF702
:1020400038FDFEF763FD01281CD10020FEF796FD48
:102050000020FEF7A1FD0020FEF797FD4FF4E011F0
:102060002046FEF774FD0120FEF779FD3920FEF7CA
:1020700038FD0028FAD00220FEF774FDFEF779FD46
:102080000828FBD110BD38B501213D20FEF705FE23
:1020900001219E48FEF730FF48F2D300ADF8000062
:1020A00048248DF8034069469348FEF79CFEC02003
:1020B000ADF800008DF8034069469148FEF793FEA5
:1020C0004FF4E650ADF800008DF8034069468B48A8
:1020D000FEF789FE0420ADF800008DF80340694644
:1020E0008848FEF780FE38BDFEB5FFF765FE0C217F
:1020F0000220FEF72AFF0B210220FEF726FF0A210D
:102100000220FEF722FF04210020FEF71EFF0F2110
:102110000020FEF71AFF02210320FEF716FF0C2510
:102120004FF41C408DF80950002601908DF808608E
:1021300001248DF80A4001A8FFF74CFE04208DF819
:10214000095001908DF808608DF80A4001A8FFF74A
:1021500041FE4FF4A060FEF7C9F80A208DF8000098
:1021600002258DF801508DF802408DF80340684635
:10217000FEF7C1F828208DF800008DF801508DF889
:1021800002508DF803406846FEF7B5F808208DF838
:1021900000008DF801508DF802608DF8034068460C
:1021A000FEF7A9F8FEBD0EB501210220FEF77EFD67
:1021B0000920ADF8040040F2CF20ADF80000002067
:1021C000ADF80600ADF8020069465148FEF77CFF05
:1021D0000EBD08B54FF48060FEF788F81D208DF81D
:1021E000000000208DF801008DF8020001208DF81C
:1021F00003006846FEF77FF808BD464904200860E2
:1022000070472DE9F041434C20683F4E424F434D0B
:10221000000406F10C060FD54FF40040206028782A
:1022200028B138693060C821A42000F04CFB6878E0
:1022300010B1A42000F095FB2068C00402D54FF433
:10224000805020602068000502D54FF400602060B7
:102250002068400526D54FF4806020602878C8B1FA
:1022600000202F492870012008703969716030689A
:1022700000F030FD244CA16800F032FD2949606077
:102280000860A42000F06DFBEF2000F0A2FAED2022
:1022900000F09FFA6878002804D0BDE8F041A4203F
:1022A00000F05FBBC3E610B5194C01212046FFF7D3
:1022B000D9FB01212046FFF765FAFFF774FFFFF70E
:1022C00088FF012211462046FFF7BBF92046BDE8F2
:1022D00010400121FFF7A0B910B50D4C0121204697
:1022E000FFF7C3FB012805D12046BDE810400121BE
:1022F000FFF7C7BB10BD00000008014000100140FF
:10230000000C0140001401403000002000023000A9
:102310000004004014040140EC0200207002002080
:1023200074020020840200202DE9F0476D4C6E48B5
:102330006E4AE16800886E4DB1FBF0F080B26080BB
:1023400012880026B1FBF2F189B221804208E280B6
:10235000A280490861812181A88048202880DFF877
:102360009491EE806E8029464846FEF7ADFE2088A7
:10237000A8804FF0804829464046FEF7A5FE0A3562
:102380006020288001276F806089E8802E8129469F
:102390004046FEF743FF08214046FFF735FA6F80BD
:1023A0002089E88029464046FEF772FF0821404612
:1023B000FFF730FA6F80E088E88029464846FEF74C
:1023C0002DFF08214846FFF71FFA6F80A088E8809C
:1023D00029464846FEF75CFF08214846FFF71AFAEF
:1023E00001214046FFF7CEF901214846FFF7CAF91F
:1023F00001214046FFF710F94846BDE8F0470121AA
:10240000FFF70AB938B501210D20FEF746FC01217E
:102410000846FEF74BFC0C20ADF8000018258DF89F
:10242000035003248DF8024069463348FEF7DBFC75
:1024300001210420FEF73AFC2002ADF800008DF8DF
:1024400003508DF8024069462C48FEF7CCFC38BD9D
:1024500010B5FFF7D7FFBDE8104065E724490A3102
:1024600038B1204A528850434FF47A7290FBF2F010
:10247000401EC8801E491F480A31FEF709BF19498E
:10248000498848434FF47A7190FBF1F01849401E97
:102490000A31C8801748FEF7C1BE15490A3138B164
:1024A000104A128850434FF47A7290FBF2F0401EAB
:1024B000C8800F494FF080400A31FEF7E9BE0C4951
:1024C0000A3138B1074A128850434FF47A7290FBB0
:1024D000F2F0401EC88006494FF080400A31FEF7F6
:1024E0009DBE0000440000200000002002000020EB
:1024F000D00200200008004000080140000C01400C
:1025000038B501258DF8035014208DF80000002403
:102510008DF801408DF802406846FDF7ECFE15206D
:102520008DF800008DF801408DF802506846FDF7E7
:10253000E2FE38BD38B501210846FEF7AEFB0121A9
:102540000420FEF7AAFB4FF40060ADF8000048201D
:102550008D4C8DF8030069462046FEF744FCA1141B
:10256000ADF8001018218DF8031003218DF802102A
:1025700069462046FEF737FC38BD3EB501214806C6
:10258000FEF794FB814C2046FDF708FF6846FDF7F7
:10259000EBFF00218DF806108DF8071001228DF851
:1025A00008108DF802108DF8042002208DF8091013
:1025B0008DF803108DF805008DF80A100C20ADF889
:1025C00000008DF80B2069462046FDF7FAFE3EBD5F
:1025D0002DE9FF41002401208DF80C4025468DF89F
:1025E0000B008DF80D006A4E6A4F1DE004EB84006D
:1025F00016F82010012915D18DF80A5006EB80013C
:102600006D1C4878EDB24001ADF80000ADF8040053
:10261000ADF80200ADF80600487CADF80800684649
:10262000FDF743FF641CE4B238788442DED3BDE892
:10263000FF8110B5554C012202212046FEF752F9C8
:1026400020460122BDE810401021FEF74BB910B51D
:1026500000F0A6F8FFF754FFFFF76CFFFFF78DFFC0
:10266000FFF7B6FFBDE81040E3E730B585B06A4636
:1026700000214648FEF75CF8474A0098105CFF28A6
:102680002FD0434B00EB800103EB81009DF80A50F3
:10269000047AAC4223D113F8211001291FD1017C07
:1026A00001291CD1407C002819D16C460BE021186F
:1026B000CD7A0099515C01EB810103EB81014968FE
:1026C0000D54401CC0B29DF80A108142EFD800980A
:1026D000105C00EB800003EB8000C068804705B011
:1026E00030BD4FF480412D48FEF7E7FBF7E730B5EA
:1026F00085B06A4601212548FEF71AF8264A009857
:10270000105CFF282FD0224B00EB800103EB8100EF
:102710009DF80A50047AAC42E1D113F82110012946
:10272000DDD1017C0129DAD1407C0128D7D10020FC
:102730006C460BE02118CD7A0099515C01EB8101C8
:1027400003EB810149680D54401CC0B29DF80A108A
:102750008142EFD80098105C00EB800003EB800012
:10276000C0688047BBE74FF480410C48FEF7A5FBEB
:10277000B5E770B5054C054629462046FDF74EFFE6
:102780000428F9D070BD000000080140006400403A
:10279000580000205400002070010020001001406B
:1027A000244810B50E22027000202349FF230B5449
:1027B000401CFF28FBDD1F4B00201B1D06E000EB2B
:1027C000800403EB840464780855401C9042F6DBD7
:1027D00010BD30B5184985B0095C1648021D037854
:1027E00001EB8100994209D312F8201031B14FF466
:1027F00080411248FEF761FB05B030BD02EB80015D
:102800006A464878009000208DF8080001908DF805
:1028100009000B7A8DF80A3005E04C681518245C25
:10282000401CEC72C0B28342F7D81046FFF7A1FFFC
:10283000E2E7000054000020700100200010014079
:10284000F0B4544C0F0A255C05EB8506524D05EBA0
:10285000860676683170265C06EB860605EB8606F2
:1028600076687770265C0F0C06EB860605EB86060D
:102870007668B7700E0E215C01EB810105EB8101DA
:102880004968CE70215C01EB810105EB810149684B
:102890000A71215C120A01EB810105EB8101496893
:1028A0004A71215C002201EB810105EB810149683D
:1028B0008A71215C01EB810105EB81014968CB71D3
:1028C000F0BCFFF786BF04230A460021B8E733486F
:1028D0004088FFF7D4BDC520FFF77BBF30490120FA
:1028E00008608120FFF775BF2E482F4B02781A70C1
:1028F000427862F30701827862F30F21C27862F3B3
:102900001741027962F31F614279807902EB00205E
:10291000264A1081A2F12000016170472448224B11
:1029200002781A70427862F30701827862F30F210D
:10293000C27862F31741027962F31F6142798079AC
:1029400002EB0020194A5081A2F12000416170473A
:1029500018480078002803D06FF0C701A420B2E720
:10296000704700231A4619466AE713480078012881
:1029700007D0022808D104234FF47A720021A02046
:102980005EE704230D4AF9E7704701230022114650
:1029900056E7000070010020580000207802002057
:1029A00080020020A2020020C00200200C030020B0
:1029B000A9020020700200208802002018FCFFFFFE
:1029C00021484FF4FA710068B0FBF1F0B0F1807F5C
:1029D0000DD220F07F414FF0E020491E41611B4A9B
:1029E000F021117000218161072101617047FEE72C
:1029F00001B517480099416041680029FCD108BD24
:102A000013484168002902D04168491E416070475F
:102A100010B5FFF7F5FF0E4C0E48216801290AD0CA
:102A2000FA290CD0B1F5FA7F01DB00202060206884
:102A3000401C206010BD0821FEF73FFAF7E708218F
:102A4000FEF739FAF3E700000400002023ED00E070
:102A5000C8020020000C014070B5054688B0012175
:102A60000520FEF71AF901214804FEF71FF9042496
:102A7000ADF8104003208DF812001820674E8DF835
:102A8000130004A93046FEF7AEF90820ADF8100097
:102A90008DF8134004A93046FEF7A5F926208DF8DD
:102AA0001C0000248DF81D408DF81E4001208DF87B
:102AB0001F0007A8FDF71FFC594EADF81440ADF8F4
:102AC0001840ADF81640ADF81A4005A93046FFF79A
:102AD0006EF8ADF808400C20ADF80440ADF80A00DF
:102AE0000095ADF80640ADF80C4069463046FEF75B
:102AF000FBFF012240F225513046FFF777F8012114
:102B00003046FFF769F808B070BD30B587B00121D5
:102B100044F20500FEF7C1F84FF40070ADF8100064
:102B200003248DF8124018203C4D8DF8130004A9A1
:102B30002846FEF758F92915ADF8101004218DF834
:102B4000131004A92846FEF74EF925208DF814002D
:102B50008DF815408DF8164001208DF8170005A856
:102B6000FDF7C9FB4FF4E13000900020ADF8040000
:102B7000ADF80600ADF80800ADF80C000C20294CAB
:102B8000ADF80A0069462046FEF7AEFF012240F28A
:102B900025512046FFF72AF801212046FFF71CF8AF
:102BA00007B030BD55211F48FFF76CB855211C48B0
:102BB000FFF768B870B51A4C40F2255529462046F3
:102BC000FFF7CBF800280CD029462046FFF7E4F8A1
:102BD0002046FFF75BF8BDE8704010211248FEF771
:102BE0006CB970BD70B50F4C40F225552946204692
:102BF000FFF7B3F8002810D029462046FFF7CCF89D
:102C00002046FFF743F8C1B22046FFF73BF86114B6
:102C1000BDE870400548FEF750B970BD000801409E
:102C20000044004000380140000C01400010014009
:102C3000F0B480EA0102D40F4200B2EB410F02D29D
:102C40000246084611464A0042D0C30DDDB2C1F328
:102C5000C752AD1A202D35DAC1F3160141F4000236
:102C600004B15242C5F1200602FA06F12A4110448D
:102C7000B3EBD05F23D0C4B1012DA0EBC35009DC6E
:102C8000F0BC4FF0004202EAC35200F50000DBB294
:102C900000F06FB8400000F1807000EBC350A0F16D
:102CA000807040EAD170490009E0490841EAC071EA
:102CB000A0EBC35000F50000400800EBC350F0BC8F
:102CC00000F04EB86142012202EB4101001BF6E721
:102CD000F0BC704781F00041AAE780F00040A7E710
:102CE00030B480EA010202F0004530F0004221F0E9
:102CF000004015D0A0B1C0F3C753C2F3C754C2F30C
:102D00001601C0F31600E41A41F4000140F4000279
:102D10007D34914201D3641C00E04900002C02DAAA
:102D200030BC002070474FF400000023914201D3D3
:102D3000891A034340084FEA4101F7D151B191424A
:102D400002D14FF0004105E002D24FF0010101E055
:102D50006FF0010103EBC450284430BCAFF3008096
:102D60000029A8BF7047401C490008BF20F001009F
:102D7000704710B4B0FA80FC00FA0CF050EA01047D
:102D800004BF10BC704749B1CCF1200421FA04F40F
:102D900011FA0CF118BF012121430843A3EB0C01E8
:102DA000CB1D0106000A002BBEBF002010BC7047DF
:102DB00000EBC35010440029A4BF10BC7047401C56
:102DC000490008BF20F0010010BC7047064C074DB9
:102DD00006E0E06840F0010394E8070098471034EB
:102DE000AC42F6D3FDF786F96C2E00088C2E000855
:102DF00070B501EB020410F8015B15F0070301D177
:102E000010F8013B2A1106D110F8012B03E010F84D
:102E1000016B01F8016B5B1EF9D12B0705D4002370
:102E2000521E0FD401F8013BFAE710F8013B02F102
:102E30000202A1EB030303E013F8015B01F8015B5D
:102E4000521EF9D5A142D6D3002070BD02E008C8B9
:102E5000121F08C1002AFAD170477047002001E014
:102E600001C1121F002AFBD1704700008C2E000800
:102E700000000020D0020000F02D00081C2F0008E8
:102E8000D0020020500400005C2E00085184A24AA9
:102E900004680D010203040607080902040608106D
:102EA00069144183FFFF03144A424C40420F4822F9
:102EB000C51370022A20591351293408010122ED4B
:102EC0005A84143924291422EFEA74142281AA8026
:102ED000144122A41A8A143995692822A2DA92147C
:102EE0001B01AC17191432071BE92878410A11831A
:102EF0005022A5EA9A3C22AD5AA93C2A1DB441228F
:102F0000A0EAB07822A1AAB8144109128C22C71AEB
:0C2F1000881432025A6B5002FFFF01606F
:04000005080000ED02
:00000001FF
